:100000000C94DF010C9410020C9410020C9410025A
:100010000C9410020C9410020C9410020C94100218
:100020000C9410020C9410020C9410020C94100208
:100030000C9410020C9410020C9410020C941002F8
:100040000C9410020C9410020C9410020C941002E8
:100050000C9410020C9410020C9410020C945E0B81
:100060000C9410020C94280B0C94FE0A0C941002B1
:100070000C9410020C9410020C9410020C941002B8
:100080000C9410020C9410020C9410020C941002A8
:100090000C9410020C9410020C9410020C94100298
:1000A0000C9410020C9410020C9410020C94100288
:1000B0000C9410020C9410020C9410020C94100278
:1000C0000C9410020C9410020C9410020C94100268
:1000D0000C9410020C9410020C9410020C94100258
:1000E0000C9410020C94D2030C9424030C94460636
:1000F0000C94A80B0C94A9040C9458040C9491042F
:100100000C9476040C946E040C9447060C947F04B3
:100110000C9453040C94A5040C948D040C94320399
:100120000C9489040C949B040C9483040C94720426
:100130000C94D4020C9497040C949F040C946A04BD
:100140000C9410030C94F80A0C9479040C94010399
:100150000C946A0300002100240027002A002D00CF
:100160003000330001010000040107010A01000012
:100170002200250028002B002E003100340002014F
:100180000000050108010B0100000A0B02090C0D1B
:100190000E0807030401000000000000000000003A
:1001A000000000000000000000000000000000004F
:1001B000000000001211100000000000000000000C
:1001C00000000000000000000000000000003D3DB5
:1001D0003D3D3D3D3D3D3D3D3D3D3D3D3D3D3D008C
:1001E0003D3D3D3D3D3D3D3D3D3D3D3D3D3D3D3D3F
:1001F0003D007377697463682038206F666600730A
:1002000077697463682037206F6666007377697456
:1002100063682036206F66660073776974636820B0
:1002200035206F6666007377697463682034206FC9
:100230006666007377697463682033206F666600B2
:100240007377697463682032206F6666007377691C
:100250007463682031206F66660073776974636821
:100260002038206F6E007377697463682037206FC1
:100270006E007377697463682036206F6E00737741
:10028000697463682035206F6E00737769746368E2
:100290002034206F6E007377697463682033206F99
:1002A0006E007377697463682032206F6E00737715
:1002B000697463682031206F6E00C2B04600C2B01E
:1002C000432000C2B04620204865617420696E64F6
:1002D00065783A2000C2B043200025202054656D87
:1002E00070657261747572653A200048756D696455
:1002F0006974793A20004661696C656420746F20E6
:10030000726561642066726F6D2044485420736585
:100310006E736F7221000000200023002600290068
:100320002C002F003200000100000301060109012A
:1003300005050505070508080808020202020A0A61
:10034000080804040404010101010101010103037F
:10035000030303030303040707070C0C0C0C0C0C2A
:100360000C0C0202020206060606060606060B0B27
:100370000B0B0B0B0B0B0102102020080810204068
:100380001020408002010201080402010102040859
:1003900010204080804020100804020180040201E7
:1003A0008040201008040201080402010102040830
:1003B000102040800102040810204080A80B112466
:1003C0001FBECFEFD1E2DEBFCDBF00E00CBF12E019
:1003D000A0E0B2E0E6E0F3E200E00BBF02C007906D
:1003E0000D92AC35B107D9F723E0ACE5B2E001C01E
:1003F0001D92AD32B207E1F711E0CFEDD1E000E0A0
:1004000006C021970109802FFE010E947911CE3D7F
:10041000D10780E00807A9F70E94130C0C94811102
:100420000C940000CF92DF92EF92FF92CF93DF9374
:10043000C82F809120038C3009F45EC038F48B30D3
:10044000F1F060E070E080EC9FE74FC085518230B2
:10045000C0F7D0911C036D2F70E0762F66276627BA
:100460007F7780911D03682B90E080E00E94D30F7E
:100470002DEC3CEC4CEC5DE30E948A1059C060917D
:100480001C0370E090E080E00E94D30F6B017C01C0
:10049000D0911D03D7FF0AC0AC019B0160E070E062
:1004A00080E89FEB0E94C00E6B017C01DF706D2F16
:1004B00070E090E080E00E94D50F2DEC3CEC4CEC1D
:1004C0005DE30E948A10A70196010E94C10ECC2311
:1004D00061F026E636E646EE5FE30E948A1020E0F1
:1004E00030E040E052E40E94C10EDF91CF91FF90D6
:1004F000EF90DF90CF900895D0911C036D2F70E0A6
:1005000090E080E00E94D30F6B017C0160911D039D
:100510006F7070E090E080E00E94D50F2DEC3CEC15
:100520004CEC5DE30E948A10A70196010E94C10E67
:10053000D7FFCDCF9058CBCFCF92DF92EF92FF92E3
:10054000CF93DF93B0912103A0E08111AB2F809175
:10055000220390E0880F991FAC014A5E5C4FC09067
:100560002703D0902803E0902903F0902A0330E07D
:1005700020E0FA01C591D491E881B90190E080E0D2
:10058000EB23EA130AC02F5F3F4F6C157D058E05E4
:100590009F0578F36FEF7FEFCB01DF91CF91FF9055
:1005A000EF90DF90CF900895AF92BF92CF92DF92FD
:1005B000EF92FF920F931F93CF93DF936C017B0118
:1005C0008B01040F151FEB015E01AE18BF08C017A9
:1005D000D10759F06991D601ED91FC910190F0811C
:1005E000E02DC6011995892B79F7C501DF91CF91CF
:1005F0001F910F91FF90EF90DF90CF90BF90AF9041
:100600000895FC01538D448D252F30E0842F90E018
:10061000821B930B541710F0CF96089501970895FD
:10062000FC01918D828D981761F0A28DAE0FBF2FC6
:10063000B11D5D968C91928D9F5F9F73928F90E01C
:1006400008958FEF9FEF0895FC01918D828D98178B
:1006500031F0828DE80FF11D858D90E008958FEFC8
:100660009FEF0895FC01918D228D892F90E0805C91
:100670009F4F821B91098F739927089585E692E019
:100680000E94320321E0892B09F420E0822F089593
:10069000FC01A48DA80FB92FB11DA35ABF4F2C91F7
:1006A000848D90E001968F739927848FA689B789EE
:1006B0002C93A089B1898C91837080648C93938DE5
:1006C000848D981306C00288F389E02D80818F7D88
:1006D00080830895EF92FF920F931F93CF93DF9340
:1006E000EC0181E0888F9B8D8C8D98131AC0E8896E
:1006F000F989808185FF15C09FB7F894EE89FF893D
:100700006083E889F98980818370806480839FBFDA
:1007100081E090E0DF91CF911F910F91FF90EF90DA
:100720000895F62E0B8D10E00F5F1F4F0F731127EA
:10073000E02E8C8D8E110CC00FB607FCFACFE88925
:10074000F989808185FFF5CFCE010E944803F1CF62
:10075000EB8DEC0FFD2FF11DE35AFF4FF0829FB799
:10076000F8940B8FEA89FB8980818062CFCF0F9349
:100770001F93CF93DF938C01D0E0C0E0F801EC0F22
:10078000FD1F6491662341F085E692E00E946A03B2
:10079000892B11F02196F2CFCE01DF91CF911F91DD
:1007A0000F910895CF93DF93EC01888D8823B9F0E2
:1007B000AA89BB89E889F9898C9185FD03C080816C
:1007C00086FD0DC00FB607FCF7CF8C9185FFF2CFE9
:1007D000808185FFEDCFCE010E944803E9CFDF91F4
:1007E000CF91089580E090E0892B29F00E943E038C
:1007F00081110E94000080E090E0892B49F080E0A8
:1008000090E0892B29F00E94000081110E940000D5
:1008100080E090E0892B49F080E090E0892B29F07E
:100820000E94000081110E94000080E090E0892B6E
:1008300049F080E090E0892B29F00E9400008111AE
:100840000C9400000895282F30E0F901E857FE4F7E
:100850009491F901EA58FC4F4491205D3C4FF90115
:100860002491222309F435C0992311F1915092313A
:10087000F8F4E92FF0E08827EF5BFB4F8F4F0C94E3
:1008800079117204760453046A046E0458047904DE
:100890007F04830489048D04910497049B04580405
:1008A0009F04A504A904809180008F778093800025
:1008B000E22FF0E0EE0FFF1FE259FE4FA591B49139
:1008C0008FB7F894EC91611148C040954E234C933A
:1008D0008FBF0895809180008F7DE8CF8091800048
:1008E000877FE4CF84B58F7784BDE2CF84B58F7DD9
:1008F000FBCF8091B0008F778093B000D9CF8091EB
:10090000B0008F7DF9CF809190008F778093900019
:10091000CFCF809190008F7DF9CF80919000877F1D
:10092000F5CF8091A0008F778093A000C1CF8091F8
:10093000A0008F7DF9CF8091A000877FF5CF8091B7
:1009400020018F7780932001B3CF809120018F7D8C
:10095000F9CF80912001877FF5CF4E2BB8CFCF9371
:10096000DF9390E0FC01EA58FC4F2491805D9C4F9E
:10097000FC0184918823D1F090E0880F991FFC013D
:10098000EC5AFE4FA591B491FC01E259FE4FC5917E
:10099000D491623071F49FB7F8943C91822F809586
:1009A00083238C93E8812E2B28839FBFDF91CF91E7
:1009B00008958FB7F894EC912E2B2C938FBFF6CF20
:1009C0003FB7F89480915D0290915E02A0915F0222
:1009D000B091600226B5A89B05C02F3F19F0019683
:1009E000A11DB11D3FBFBA2FA92F982F8827BC0189
:1009F000CD01620F711D811D911D42E0660F771FB1
:100A0000881F991F4A95D1F708958F929F92AF92B0
:100A1000BF92CF92DF92EF92FF924B015C010E9456
:100A2000E0046B017C010E94E0046C197D098E09D1
:100A30009F09683E734081059105A8F321E0821A61
:100A40009108A108B10888EEC80E83E0D81EE11C09
:100A5000F11C81149104A104B10429F7FF90EF90D7
:100A6000DF90CF90BF90AF909F908F900895CF92DE
:100A7000DF92EF92FF920F931F93CF93DF93CDB747
:100A8000DEB7C054D1400FB6F894DEBF0FBECDBF65
:100A90002FB7F8948091610290916202A091630255
:100AA000B09164022FBF40912303509124036091C1
:100AB0002503709126038C019D01041B150B260B49
:100AC000370BB901A801403D57406105710590F40D
:100AD00080912B03C05CDE4F0FB6F894DEBF0FBED3
:100AE000CDBFDF91CF911F910F91FF90EF90DF90DD
:100AF000CF9008958093230390932403A09325031C
:100B0000B093260310921E0310921D0310921C0333
:100B100010921B0310921A0362E080911F030E943F
:100B2000AF0461E070E080E090E00E94050561E0C4
:100B300080911F030E94AF0460E080911F030E9418
:100B40002304809120038551823020F58BE291E1CE
:100B50000197F1F762E080911F030E94AF0480913A
:100B60002C0390E08230910538F0880F991F880F90
:100B7000991F05970197F1F7F89480E00E949C0275
:100B80006F3F7F4F8F4F9F4F61F410922B037894EC
:100B900080E0A0CF64E170E080E090E00E94050575
:100BA000D9CF81E00E949C026F3F7F4F8F4F9F4FB4
:100BB00061F38E010F5F1F4F6E018FEBC81A8EEF2E
:100BC000D80A780180E00E949C02F701608371835B
:100BD0008283938381E00E949C02F7016483758382
:100BE00086839783F8E0EF0EF11CEC14FD0451F7B7
:100BF000789430E020E0F801C080D180E280F3807A
:100C00004481558166817781FFEFCF16DF06EF06BD
:100C1000FF0631F04F3F8FEF58076807780719F448
:100C200010922B03B5CFF90183E0F595E7958A95EE
:100C3000E1F7E65EFC4F8081880FC416D506E60614
:100C4000F70610F180832F5F3F4F085F1F4F283258
:100C5000310589F640911E0320911A0380911B03F0
:100C6000280F3327331F80911C03280F311D8091DB
:100C70001D03820F932F911D99274817190681F69E
:100C800081E080932B0326CF8160DCCF089590E034
:100C900080E008954F925F926F927F928F929F9221
:100CA000AF92BF92CF92DF92EF92FF920F93CF93CA
:100CB000DF9300D000D01F921F92CDB7DEB76B013B
:100CC0007C0149015A0101110EC026E636E646EEC6
:100CD0005FE30E948A1020E030E040E052E40E948E
:100CE000C10E6B017C0120E030E048E852E4C7010E
:100CF000B6010E94C00E2AE939E949E95FE30E9482
:100D00008A102B013C0120E030E044E752E4C701A7
:100D1000B6010E94C10E9B01AC01C301B2010E9449
:100D2000C10E2B013C0122E133E840EC5DE3C5013B
:100D3000B4010E948A109B01AC01C301B2010E9460
:100D4000C10E20E030E040E05FE30E948A102B01FA
:100D50003C0120E030E04EE952E40E948510181674
:100D60000CF023C1A7019601C701B6010E948A10A9
:100D70002B013C01A5019401C501B4010E948A1018
:100D80006D837E838F83988721E133E243E050E4D3
:100D9000C701B6010E948A1029E134E849E252E411
:100DA0000E94C00E69837A838B839C8326E13BE497
:100DB00042E251E4C501B4010E948A109B01AC01DA
:100DC00069817A818B819C810E94C10E69837A83BB
:100DD0008B839C8328E436E246E65EEBC701B601CE
:100DE0000E948A10A50194010E948A109B01AC0107
:100DF00069817A818B819C810E94C10E69837A838B
:100E00008B839C8320EE3FE040EE5BEBC301B2019D
:100E10000E948A109B01AC0169817A818B819C813F
:100E20000E94C10E69837A838B839C8328EF37E805
:100E300040E65DEB6D817E818F8198850E948A10EE
:100E40009B01AC0169817A818B819C810E94C10EDA
:100E500069837A838B839C832CEA3DE041EA5AE3E1
:100E6000C301B2010E948A10A50194010E948A1058
:100E70009B01AC0169817A818B819C810E94C10EAA
:100E800069837A838B839C8328EC3FE84FE55AE3A0
:100E9000C701B6010E948A102D813E814F8158857D
:100EA0000E948A109B01AC0169817A818B819C81AF
:100EB0000E94C10E69837A838B839C8321EF3BE878
:100EC00045E056EBC301B2010E948A102D813E819C
:100ED0004F8158850E948A109B01AC0169817A81FB
:100EE0008B819C810E94C10E2B013C0120E030E0EF
:100EF00040E551E4C501B4010E942D0F87FF88C071
:100F000020E030E040EA52E4C701B6010E948510BB
:100F100087FD7EC020E030E040EE52E4C701B6011C
:100F20000E942D0F18160CF4BDC0A501940160E0BD
:100F300070E080E591E40E94C00E20E030E040E8DF
:100F40005EE30E948A104B015C0120E030E04EEB32
:100F500052E4C701B6010E94C00E6B017C0120E083
:100F600030E0A9010E94851018160CF048C0A701B6
:100F7000960160E070E088E891E40E94C00E2EE3E4
:100F80003DEE40E75DE30E948A100E94FD109B0148
:100F9000AC01C501B4010E948A109B01AC01C301E0
:100FA000B2010E94C00E2B013C01011110C020E0D3
:100FB00030E040E052E4C301B2010E94C00E26E8D6
:100FC00038E34EE05FE30E948A102B013C01C3012D
:100FD000B20128960FB6F894DEBF0FBECDBFDF91E9
:100FE000CF910F91FF90EF90DF90CF90BF90AF9097
:100FF0009F908F907F906F905F904F90089520E02A
:1010000030E048E851E4C701B6010E94C10EB7CFF5
:1010100020E030E04AEA52E4C501B4010E948510A4
:1010200018161CF620E030E040EA52E4C701B60191
:101030000E94851087FDB9CF20E030E04EEA52E4EF
:10104000C701B6010E942D0F18160CF4AECF20E098
:1010500030E04AEA52E4C501B4010E94C00E2DEC12
:101060003CEC4CEC5DE30E948A104B015C01A70153
:10107000960160E070E08EEA92E40E94C00E2DECD2
:101080003CEC4CE45EE30E948A109B01AC01C5017C
:10109000B4010E948A109B01AC01C301B2010E94FD
:1010A000C10E81CF20E030E04AEA52E4C501B4012C
:1010B0000E94851018160CF4BFCF77CFFB0101906A
:1010C0000020E9F73197AF01461B570BDC01ED918A
:1010D000FC910280F381E02D1994CF93DF930E945D
:1010E000B703EC016EE172E085E692E00E945E08D3
:1010F0008C0F9D1FDF91CF9108958F929F92AF9299
:10110000BF92EF92FF920F931F93CF93DF93CDB7D0
:10111000DEB7A1970FB6F894DEBF0FBECDBF7C013E
:10112000FA01CB0119A2223008F42AE08E010F5DEA
:101130001F4F822E912CB12CA12CBF01A50194012F
:101140000E945711F901CA016A300CF5605DD8019F
:101150006E938D01232B242B252B79F790E080E0D3
:10116000109721F0BD01C7010E945E08A1960FB63D
:10117000F894DEBF0FBECDBFDF91CF911F910F91CD
:10118000FF90EF90BF90AF909F908F900895695C13
:10119000DECF2F923F924F925F926F927F928F920B
:1011A0009F92AF92BF92CF92DF92EF92FF921F93E6
:1011B000CF93DF93EC016A017B01722EAB019601A4
:1011C000CB01B6010E943D1161E272E0811126C09F
:1011D00046015701E894B7F82FEF3FEF4FE75FE77D
:1011E000C501B4010E943D1181110CC02FEF3FEFEA
:1011F0004FE75FE7C501B4010E942D0F65E272E081
:10120000181664F02FEF3FEF4FE75FE4C701B60118
:101210000E9485101816B4F469E272E0CE01DF91E5
:10122000CF911F91FF90EF90DF90CF90BF90AF9044
:101230009F908F907F906F905F904F903F902F90F6
:101240000C945E082FEF3FEF4FE75FECC701B6014C
:101250000E942D0F87FDE0CF20E030E0A901C701FB
:10126000B6010E942D0F312C212C87FF0DC0E88183
:10127000F9810190F081E02D6DE2CE0119951C01FC
:10128000F7FAF094F7F8F09410E060E070E080E096
:101290009FE3711641F020E030E040E251E40E940B
:1012A000320F1F5FF6CFA70196010E94C10E2B01DE
:1012B0003C010E94A40F4B015C012AE0BC01A40187
:1012C000CE010E947D087C01E20CF31C1123E1F1A8
:1012D000C501B4010E94D30F9B01AC01C301B2014F
:1012E0000E94C00E4B015C01E881F9810190F08100
:1012F000E02D6EE2CE011995E80EF91E115020F195
:1013000020E030E040E251E4C501B4010E948A10BF
:101310002B013C010E94A40F4B01B12CA12C2AE00F
:10132000B501A401CE010E947D08E80EF91EC50199
:10133000B4010E94D30F9B01AC01C301B2010E9412
:10134000C00E4B015C01DACFC701DF91CF911F9135
:10135000FF90EF90DF90CF90BF90AF909F908F90D5
:101360007F906F905F904F903F902F900895CF9314
:10137000DF93EC0160E08E810E94230461E08E81A6
:101380000E94230460E08E810E9423048BE891E098
:101390000197F1F7DF91CF910895CF92DF92EF920D
:1013A000FF920F931F93CF93DF936C017C0187E033
:1013B000E80EF11CD0E0C0E0062F10E0B8010C2EC2
:1013C00002C0759567950A94E2F76170F701819103
:1013D0007F010E9423042196C430D10579F7C6010C
:1013E000DF91CF911F910F91FF90EF90DF90CF9001
:1013F0000C94B709CF92DF92EF92FF920F931F9355
:10140000CF93DF93EC01F62E642F8C810E9423048E
:101410008D818F3F19F060E00E9423040F2D10E0B2
:101420008F8584FF25C06E0187E0C80ED11CF12C8A
:10143000E12CB8010E2C02C0759567950A94E2F76D
:101440006170F60181916F010E942304FFEFEF1A92
:10145000FF0A88E0E816F10461F7CE01DF91CF9131
:101460001F910F91FF90EF90DF90CF900C94B709F0
:10147000B80184E0759567958A95E1F7CE010E94E1
:10148000CD096F2DCE01DF91CF911F910F91FF906C
:10149000EF90DF90CF900C94CD0940E0682F82E070
:1014A00093E00C94FA09CF93DF93613029F0909187
:1014B0001103986090931103609315031092160323
:1014C00090E49093170380931803805C8093190332
:1014D00061E0809106030E94AF04809107038F3F73
:1014E00019F061E00E94AF0461E0809108030E945E
:1014F000AF04C2E0D3E09E0122503340809111033B
:1015000084FD0BC084E090E021962817390744F44D
:1015100061E08E810E94AF04EECF88E090E0F4CFCE
:101520008BE39DE00197F1F760E0809106030E9454
:10153000230460E0809108030E9423048091070344
:101540008F3F19F060E00E9423048091110384FD15
:1015500039C063E082E093E00E94CD09CBE4D6E499
:10156000CE010197F1F763E082E093E00E94CD099C
:101570002197F1F763E082E093E00E94CD0983E5D3
:1015800092E00197F1F762E082E093E00E94CD09DA
:101590008091110380620E944D0A84E080931203BF
:1015A0008CE00E944D0A81E00E944D0A8BE39FE18E
:1015B0000197F1F782E08093130386E0DF91CF91EA
:1015C0000C944D0A80620E944D0A8BE496E40197C8
:1015D000F1F78091110380620E944D0A83E592E049
:1015E0000197F1F78091110380620E944D0AD0CFDC
:1015F00041E00E94FA0981E090E008951F920F9265
:101600000FB60F9211240BB60F922F933F934F9367
:101610005F936F937F938F939F93AF93BF93EF935A
:10162000FF9385E692E00E944803FF91EF91BF91FE
:10163000AF919F918F917F916F915F914F913F916A
:101640002F910F900BBE0F900FBE0F901F9018950B
:101650001F920F920FB60F9211240BB60F922F9379
:101660008F939F93EF93FF93E0917502F091760231
:101670008081E0917B02F0917C0282FD1DC090810F
:1016800080917E028F5F8F7320917F02821741F0DD
:10169000E0917E02F0E0EB59FD4F958F80937E0242
:1016A000FF91EF919F918F912F910F900BBE0F9013
:1016B0000FBE0F901F9018958081F2CF1F920F924E
:1016C0000FB60F9211242F933F938F939F93AF9355
:1016D000BF938091610290916202A0916302B091E8
:1016E000640230915C0223E0230F2D3758F50196F8
:1016F000A11DB11D20935C02809361029093620250
:10170000A0936302B093640280915D0290915E02A7
:10171000A0915F02B09160020196A11DB11D80935E
:101720005D0290935E02A0935F02B0936002BF914E
:10173000AF919F918F913F912F910F900FBE0F907E
:101740001F90189526E8230F0296A11DB11DD2CF38
:10175000E5E6F2E01382128288EE93E0A0E0B0E0CA
:1017600084839583A683B78384E092E0918380830A
:1017700085EC90E09587848784EC90E09787868756
:1017800080EC90E0918B808B81EC90E0938B828B4E
:1017900082EC90E0958B848B86EC90E0978B868B27
:1017A000118E128E138E148EAAE1B3E082E015968C
:1017B0008C9315978BE016968C931697E8E7F3E0D9
:1017C000E4911796EC931797E2E3F3E0E49118960F
:1017D000EC93189740E85EE360E070E01D964D934F
:1017E0005D936D937C935097E2E0F3E01382128255
:1017F00086E192E0918380838DE084838FEF8583FF
:101800008CE0868386E0878385E0808784E081871B
:1018100083E082871386148615861686178661E014
:1018200080E10C94530ACF93DF9300D000D01F9235
:101830001F92CDB7DEB7789484B5826084BD84B53D
:10184000816084BD85B5826085BD85B5816085BDBB
:1018500080916E00816080936E0010928100809173
:1018600081008260809381008091810081608093FB
:101870008100809180008160809380008091B10020
:1018800084608093B1008091B00081608093B0004B
:10189000809191008260809391008091910081609D
:1018A000809391008091900081608093900080915E
:1018B000A10082608093A1008091A100816080934B
:1018C000A1008091A00081608093A00080912101FF
:1018D00082608093210180912101816080932101A8
:1018E0008091200181608093200180917A00846042
:1018F00080937A0080917A00826080937A00809150
:101900007A00816080937A0080917A008068809369
:101910007A001092C100E0917502F091760282E0A7
:101920008083E0917102F09172021082E091730263
:10193000F09174028FEC808310927D02E091790225
:10194000F0917A0286E08083E0917702F09178024C
:10195000808180618083E0917702F09178028081BC
:1019600088608083E0917702F091780280818068BE
:101970008083E0917702F091780280818F7D80836F
:1019800080EE91E00E946D088EEC91E00E946D085F
:1019900062E080911F030E94AF042FB7F8948091FA
:1019A000610290916202A0916302B09164022FBF24
:1019B000805D9740A109B10980932303909324038C
:1019C000A0932503B093260387E380932C0361E063
:1019D00086E10E94AF0461E087E10E94AF0461E00C
:1019E00088E10E94AF0461E089E10E94AF0461E0F8
:1019F0008AE10E94AF0461E08BE10E94AF0461E0E4
:101A00008CE10E94AF0461E08DE10E94AF0460EDC3
:101A100077E080E090E00E94050564E084E10E94A8
:101A2000530A6DE272E082E093E00E945E080E9439
:101A30003705882351F0809120038B3030F08D30B2
:101A400058F08551823008F45CC0C12CD12C20ECB8
:101A5000E22E2FE7F22E1EC060911B0370E090E093
:101A600080E00E94D50F2DEC3CEC4CEC5DE30E9435
:101A70008A106B017C0160911A0370E090E080E0B5
:101A80000E94D50F9B01AC01C701B6010E94C10E97
:101A90006B017C010E943705812C912C90ECA92EC2
:101AA0009FE7B92E882329F080E00E9412024B01A3
:101AB0005C010E9437058823B1F181E00E94120287
:101AC0002B013C01A7019601C701B6010E943D11FF
:101AD000811110C0A5019401C501B4010E943D11FE
:101AE000811108C0A3019201C301B2010E943D11FE
:101AF000882301F186EF92E00E946D080E94F203B4
:101B000086CF60911A0370911B037627672776278B
:101B100090E080E00E94D30F2DEC3CEC4CEC5DE3B8
:101B20000E948A10B5CF412C512C80EC682E8FE793
:101B3000782EC8CF01E0A7019601C301B2010E942F
:101B40004A0669837A838B839C8300E0A701960110
:101B5000C501B4010E944A066D837E838F839887F6
:101B60008BEE92E00E94B70322E0B701A60185E662
:101B700092E00E94C908E0911503E23008F0FCC031
:101B8000E150F0E0EE5FFC4F848980680E944D0ACE
:101B90006CE372E082E093E00E945E0822E0B7010D
:101BA000A60182E093E00E94C90867E472E082E047
:101BB00093E00E945E088AED92E00E94B70322E063
:101BC000B501A40185E692E00E94C90885ED92E086
:101BD0000E94B70322E0B301A20185E692E00E94D1
:101BE000C90883EC92E00E94B70322E04D815E8138
:101BF0006F81788585E692E00E94C9088EEB92E0BD
:101C00000E94B70322E049815A816B817C8185E67D
:101C100092E00E94C9088AEB92E00E946D08E09170
:101C20001503E33008F0AAC0E150F0E0EE5FFC4F8E
:101C3000848980680E944D0A6AE472E082E093E041
:101C40000E945E0822E0B501A40182E093E00E94B8
:101C5000C90867E572E082E093E00E945E088EEAC0
:101C600092E00E946D0882EA92E00E946D0886E987
:101C700092E00E946D088AE892E00E946D088EE76B
:101C800092E00E946D0882E792E00E946D0886E66D
:101C900092E00E946D088AE592E00E946D0861E082
:101CA00086E10E94230461E087E10E94230461E051
:101CB00088E10E94230461E089E10E94230461E03D
:101CC0008AE10E94230461E08BE10E94230461E029
:101CD0008CE10E94230461E08DE10E94230468EE00
:101CE00073E080E090E00E9405058DE492E00E94A0
:101CF0006D0880E492E00E946D0883E392E00E9408
:101D00006D0886E292E00E946D0889E192E00E94EF
:101D10006D088CE092E00E946D088FEF91E00E94C8
:101D20006D0882EF91E00E946D0860E086E10E94FC
:101D3000230460E087E10E94230460E088E10E94C0
:101D4000230460E089E10E94230460E08AE10E94AC
:101D5000230460E08BE10E94230460E08CE10E9498
:101D6000230460E08DE10E94230468EE73E080E0CC
:101D700090E00E940505C2CEE1E003CFE2E055CF3E
:101D80005058BB27AA270E94D80E0C944B100E94D3
:101D90003D1038F00E94441020F039F49F3F19F4B0
:101DA00026F40C943A100EF4E095E7FB0C943410F2
:101DB000E92F0E945C1058F3BA1762077307840773
:101DC000950720F079F4A6F50C947E100EF4E095BA
:101DD0000B2EBA2FA02D0B01B90190010C01CA01E5
:101DE000A0011124FF27591B99F0593F50F4503E90
:101DF00068F11A16F040A22F232F342F4427585F82
:101E0000F3CF469537952795A795F0405395C9F799
:101E10007EF41F16BA0B620B730B840BBAF0915051
:101E2000A1F0FF0FBB1F661F771F881FC2F70EC0F0
:101E3000BA0F621F731F841F48F4879577956795C3
:101E4000B795F7959E3F08F0B0CF9395880F08F0AF
:101E50009927EE0F9795879508950E94101008F422
:101E600081E008950E94460F0C944B100E9444108C
:101E700058F00E943D1040F029F45F3F29F00C9487
:101E8000341051110C947F100C943A100E945C1085
:101E900068F39923B1F3552391F3951B550BBB2799
:101EA000AA2762177307840738F09F5F5F4F220FDE
:101EB000331F441FAA1FA9F335D00E2E3AF0E0E8D5
:101EC00032D091505040E695001CCAF72BD0FE2F1F
:101ED00029D0660F771F881FBB1F261737074807B3
:101EE000AB07B0E809F0BB0B802DBF01FF2793586B
:101EF0005F4F3AF09E3F510578F00C9434100C94EB
:101F00007F105F3FE4F3983ED4F38695779567950D
:101F1000B795F7959F5FC9F7880F911D969587959F
:101F200097F90895E1E0660F771F881FBB1F6217BE
:101F300073078407BA0720F0621B730B840BBA0B7C
:101F4000EE1F88F7E09508950E94641088F09F576F
:101F500098F0B92F9927B751B0F0E1F0660F771FCD
:101F6000881F991F1AF0BA95C9F714C0B13091F0C3
:101F70000E947E10B1E008950C947E10672F782F98
:101F80008827B85F39F0B93FCCF386957795679588
:101F9000B395D9F73EF490958095709561957F4FF4
:101FA0008F4F9F4F0895E89409C097FB3EF490959A
:101FB0008095709561957F4F8F4F9F4F9923A9F022
:101FC000F92F96E9BB279395F695879577956795B1
:101FD000B795F111F8CFFAF4BB0F11F460FF1BC0F5
:101FE0006F5F7F4F8F4F9F4F16C0882311F096E988
:101FF00011C0772321F09EE8872F762F05C0662336
:1020000071F096E8862F70E060E02AF09A95660FEE
:10201000771F881FDAF7880F9695879597F90895A7
:10202000990F0008550FAA0BE0E8FEEF16161706E9
:10203000E807F907C0F012161306E407F50798F051
:10204000621B730B840B950B39F40A2661F0232B6A
:10205000242B252B21F408950A2609F4A140A695E6
:102060008FEF811D811D089597F99F6780E870E0CB
:1020700060E008959FEF80EC089500240A941616FE
:10208000170618060906089500240A941216130666
:10209000140605060895092E0394000C11F48823F4
:1020A00052F0BB0F40F4BF2B11F460FF04C06F5F10
:1020B0007F4F8F4F9F4F089557FD9058440F551FE6
:1020C00059F05F3F71F04795880F97FB991F61F0BA
:1020D0009F3F79F087950895121613061406551F31
:1020E000F2CF4695F1DF08C0161617061806991F9D
:1020F000F1CF86957105610508940895E894BB2792
:1021000066277727CB0197F908950E94101008F4ED
:102110008FEF08950E949D100C944B100E943D106B
:1021200038F00E94441020F0952311F00C943410E4
:102130000C943A1011240C947F100E945C1070F3E0
:10214000959FC1F3950F50E0551F629FF001729F5C
:10215000BB27F00DB11D639FAA27F00DB11DAA1F6B
:10216000649F6627B00DA11D661F829F2227B00DB8
:10217000A11D621F739FB00DA11D621F839FA00D43
:10218000611D221F749F3327A00D611D231F849F93
:10219000600D211D822F762F6A2F11249F575040EA
:1021A0009AF0F1F088234AF0EE0FFF1FBB1F661F65
:1021B000771F881F91505040A9F79E3F510580F02E
:1021C0000C9434100C947F105F3FE4F3983ED4F3EA
:1021D000869577956795B795F795E7959F5FC1F7D2
:1021E000FE2B880F911D9695879597F9089519F400
:1021F00016F40C943A100C9442110E946410B8F337
:102200009923C9F3B6F39F57550B87FF0E945011CE
:102210000024A0E640EA900180585695979528F44E
:10222000805C660F771F881F20F026173707480746
:1022300030F4621B730B840B202931294A2BA6959D
:1022400017940794202531254A2758F7660F771FE2
:10225000881F20F026173707480730F4620B730BEE
:10226000840B200D311D411DA09581F7B901842FEC
:102270009158880F9695879508950E941010880BA5
:10228000990B08959F3F31F0915020F487957795F1
:102290006795B795880F911D9695879597F908953D
:1022A00091505040660F771F881FD2F70895A1E222
:1022B0001A2EAA1BBB1BFD010DC0AA1FBB1FEE1FC0
:1022C000FF1FA217B307E407F50720F0A21BB30B0B
:1022D000E40BF50B661F771F881F991F1A9469F787
:1022E00060957095809590959B01AC01BD01CF01E3
:1022F0000895EE0FFF1F881F8BBF0790F691E02D0A
:062300001994F894FFCFD0
:10230600000000006A03D4020103D2033203100363
:10231600240300000000F80AD402470646060D0A08
:10232600006E616E00696E66006F76660054656DBC
:10233600706520262068756D6964210048756D6991
:10234600646974793A200025200054656D706572C1
:0C23560065747572653A00C2B043200047
:00000001FF
