:100000000C9422010C9453010C9453010C94530151
:100010000C9453010C9453010C9453010C94530110
:100020000C9453010C9453010C9453010C94530100
:100030000C9453010C9453010C9453010C945301F0
:100040000C9453010C9453010C9453010C945301E0
:100050000C9453010C9453010C9453010C9416040A
:100060000C9453010C9453010C9453010C945301C0
:100070000C9453010C9453010C9453010C945301B0
:100080000C9453010C9453010C9453010C945301A0
:100090000C9453010C9453010C9453010C94530190
:1000A0000C9453010C9453010C9453010C94530180
:1000B0000C9453010C9453010C9453010C94530170
:1000C0000C9453010C9453010C9453010C94530160
:1000D0000C9453010C9453010C9453010C94530150
:1000E0000C9453010C9427020C94E8010C9419020F
:1000F0000C9470020C9423020C94EC010C941D02DD
:100100000C9410040C9407020C940B020C94D10173
:100110000C940F020C94D6010C94FB050C946F0206
:100120000C94F7010C9401020C94F4010C947401EA
:100130000C94F0010C9415020C94FD0100000A0BC4
:1001400002090C0D0E080703040100000000000066
:10015000000000000000000000000000000000009F
:10016000000000000000000012111000000000005C
:10017000000000000000000000000000000000007F
:10018000000000002200250028002B002E00310076
:10019000340002010000050108010B0100002100EC
:1001A000240027002A002D00300033000101000048
:1001B000040107010A0105050505070508080808E7
:1001C000020202020A0A08080404040401010101EF
:1001D00001010101030303030303030304070707EA
:1001E0000C0C0C0C0C0C0C0C02020202060606068F
:1001F000060606060B0B0B0B0B0B0B0B010210205C
:10020000200808102040102040800201020108044C
:1002100002010102040810204080804020100804E0
:100220000201800402018040201008040201080439
:10023000020101020408102040800102040810207D
:100240004080FB0511241FBECFEFD1E2DEBFCDBF42
:1002500000E00CBF12E0A0E0B2E0E0E2F0E100E07C
:100260000BBF02C007900D92A435B107D9F722E069
:10027000A4E5B2E001C01D92A537B207E1F711E095
:10028000C2E2D1E000E006C021970109802FFE0103
:100290000E940608C132D10780E00807A9F70E9432
:1002A00060040C940E080C94000090E0FC01E450F3
:1002B000FE4F24918A549E4FFC018491882399F02B
:1002C00090E0880F991FFC01E456FE4FA591B49170
:1002D000FC01EE57FE4F859194918FB7F894EC9105
:1002E000E22BEC938FBF0895AF92BF92CF92DF9233
:1002F000EF92FF920F931F93CF93DF936C017B01DB
:100300008B01040F151FEB015E01AE18BF08C0176B
:10031000D10759F06991D601ED91FC910190F081DE
:10032000E02DC6011995892B79F7C501DF91CF9191
:100330001F910F91FF90EF90DF90CF90BF90AF9003
:100340000895282F30E0F901E45CFE4F9491F90103
:10035000E450FE4F44912A543E4FF9012491222348
:1003600009F435C0992311F191509231F8F4E92F35
:10037000F0E08827E154FE4F8F4F0C940608F001FF
:10038000F401D101E801EC01D601F701FD01010200
:1003900007020B020F0215021902D6011D022302E9
:1003A0002702809180008F7780938000E22FF0E019
:1003B000EE0FFF1FEE57FE4FA591B4918FB7F89443
:1003C000EC91611148C040954E234C938FBF089526
:1003D000809180008F7DE8CF80918000877FE4CF7F
:1003E00084B58F7784BDE2CF84B58F7DFBCF8091BC
:1003F000B0008F778093B000D9CF8091B0008F7D0F
:10040000F9CF809190008F7780939000CFCF80912B
:1004100090008F7DF9CF80919000877FF5CF8091FC
:10042000A0008F778093A000C1CF8091A0008F7D26
:10043000F9CF8091A000877FF5CF809120018F7741
:1004400080932001B3CF809120018F7DF9CF8091DF
:100450002001877FF5CF4E2BB8CF863308F0865327
:1004600020917B00982F9870277F922B90937B0090
:100470008770806480937C0080917A008064809390
:100480007A0080917A0086FDFCCF8091780090916F
:10049000790008953FB7F8948091590290915A02DB
:1004A000A0915B02B0915C0226B5A89B05C02F3FCE
:1004B00019F00196A11DB11D3FBFBA2FA92F982F8A
:1004C0008827BC01CD01620F711D811D911D42E085
:1004D000660F771F881F991F4A95D1F708950895D1
:1004E00090E080E00895FC0101900020E9F7319749
:1004F000AF01481B590BBC018DE592E00C947401CF
:100500008F929F92AF92BF920F931F93CF93DF93DF
:10051000CDB7DEB7A1970FB6F894DEBF0FBECDBF43
:1005200019A2423008F44AE08E010F5D1F4F842E5D
:10053000912CB12CA12CA50194010E94E407E62F77
:10054000B901CA01EA30F4F4E05DD801EE938D01FF
:10055000232B242B252B79F790E080E0109719F0BE
:10056000CD010E947302A1960FB6F894DEBF0FBEB4
:10057000CDBFDF91CF911F910F91BF90AF909F9012
:100580008F900895E95CE1CFCF93DF93EC0160E0B9
:100590008E810E94A10161E08E810E94A10160E034
:1005A0008E810E94A1018BE891E00197F1F7DF9124
:1005B000CF910895CF92DF92EF92FF920F931F9306
:1005C000CF93DF936C017C0187E0E80EF11CD0E053
:1005D000C0E0062F10E0B8010C2E02C0759567959B
:1005E0000A94E2F76170F70181917F010E94A101F5
:1005F0002196C430D10579F7C601DF91CF911F91C3
:100600000F91FF90EF90DF90CF900C94C402CF92A7
:10061000DF92EF92FF920F931F93CF93DF93EC0142
:10062000F62E642F8C810E94A1018D818F3F19F0DD
:1006300060E00E94A1010F2D10E08F8584FF25C08E
:100640006E0187E0C80ED11CF12CE12CB8010E2CF4
:1006500002C0759567950A94E2F76170F601819181
:100660006F010E94A101FFEFEF1AFF0A88E0E81670
:10067000F10461F7CE01DF91CF911F910F91FF90AF
:10068000EF90DF90CF900C94C402B80184E0759590
:1006900067958A95E1F7CE010E94DA026F2DCE01AF
:1006A000DF91CF911F910F91FF90EF90DF90CF904E
:1006B0000C94DA0240E0682F8DE592E00C94070379
:1006C000CF93DF93613029F090916C029860909302
:1006D0006C02609370021092710290E49093720227
:1006E00080937302805C80937402809161020E9407
:1006F0005501809162028F3F11F00E945501809157
:1007000063020E945501CDE5D2E09E012D55324095
:1007100080916C0284FD0AC084E090E02196281745
:1007200039073CF48E810E945501EFCF88E090E0BC
:10073000F5CF8BE39DE00197F1F760E080916102D6
:100740000E94A10160E0809163020E94A10180915A
:1007500062028F3F19F060E00E94A10180916C025B
:1007600084FD39C063E08DE592E00E94DA02CBE4BB
:10077000D6E4CE010197F1F763E08DE592E00E94A7
:10078000DA022197F1F763E08DE592E00E94DA0248
:1007900083E592E00197F1F762E08DE592E00E9437
:1007A000DA0280916C0280620E945A0384E0809396
:1007B0006D028CE00E945A0381E00E945A038BE391
:1007C0009FE10197F1F782E080936E0286E0DF916E
:1007D000CF910C945A0380620E945A038BE496E4F2
:1007E0000197F1F780916C0280620E945A0383E5C1
:1007F00092E00197F1F780916C0280620E945A03A7
:10080000D0CF90917002691710F06FEF690FE62F4B
:10081000F0E0E35AFD4F9489890F80680C945A03E5
:1008200041E00E94070381E090E008951F920F923B
:100830000FB60F9211242F933F938F939F93AF93F3
:10084000BF938091550290915602A0915702B091AA
:1008500058023091540223E0230F2D3758F50196AA
:10086000A11DB11D2093540280935502909356020E
:10087000A0935702B09358028091590290915A0266
:10088000A0915B02B0915C020196A11DB11D809305
:10089000590290935A02A0935B02B0935C02BF91FD
:1008A000AF919F918F913F912F910F900FBE0F901D
:1008B0001F90189526E8230F0296A11DB11DD2CFD7
:1008C000789484B5826084BD84B5816084BD85B52B
:1008D000826085BD85B5816085BD80916E00816037
:1008E00080936E00109281008091810082608093DD
:1008F00081008091810081608093810080918000DF
:100900008160809380008091B10084608093B10009
:100910008091B00081608093B000809191008260EE
:1009200080939100809191008160809391008091EB
:1009300090008160809390008091A10082608093FC
:10094000A1008091A10081608093A1008091A0000E
:1009500081608093A00080912101826080932101B9
:10096000809121018160809321018091200181602B
:100970008093200180917A00846080937A00809136
:100980007A00826080937A0080917A0081608093FF
:100990007A0080917A00806880937A001092C1007A
:1009A00064E084E10E94600360E081E00E94010451
:1009B0008CE092E00E94730261E084E00E940104F6
:1009C0008FE192E00E94730262E080E00E940104E5
:1009D0008CE292E00E94730263E080E00E940104D6
:1009E0008BE392E00E947302C0E0D0E086E30E94B5
:1009F0002D024C0186E30E942D02BC01990F880B49
:100A0000990B0E94BD0620E030E040EA5BE30E94C3
:100A100072076B017C0162E08EE00E940104092CE8
:100A2000000CAA08BB084AE0C501B401B7FE0EC01D
:100A300041E06DE28DE592E00E940703662777278B
:100A4000CB01681979098A099B094AE00E94800252
:100A500063E089E00E940104A7019601C701B60185
:100A60000E94DF07882399F185E492E00E947302D7
:100A700081E592E00E9473020E944A024B015C01F0
:100A800088EEC82E83E0D82EE12CF12C0E944A0279
:100A9000681979098A099B09683E734081059105A7
:100AA000A8F321E0C21AD108E108F10888EE880E07
:100AB00083E0981EA11CB11CC114D104E104F1040F
:100AC00029F7209709F492CF0E9400008FCF4601AA
:100AD0005701E894B7F82FEF3FEF4FE75FE7C50105
:100AE000B4010E94DF0781110DC02FEF3FEF4FE7E8
:100AF0005FE7C501B4010E94870618161CF489E45B
:100B000092E0B4CF2FEF3FEF4FE75FE4C701B601AC
:100B10000E946D0718161CF48DE492E0A7CF2FEF0A
:100B20003FEF4FE75FECC701B6010E94870687FDE4
:100B3000F3CF20E030E0A901C701B6010E9487068B
:100B400087FF0AC041E06DE28DE592E00E94070355
:100B5000F7FAF094F7F8F0942AE037ED43EA5BE314
:100B6000C701B6010E941B064B015C010E948C0666
:100B70006B017C010E94BB069B01AC01C501B40165
:100B80000E941A064B015C014AE0C701B6010E94AF
:100B9000800241E06EE28DE592E00E94070320E0D2
:100BA00030E040E251E4C501B4010E9472074B01FC
:100BB0005C010E948C066B01F12CE12C4AE0C7011C
:100BC000B6010E948002C701B6010E94BB069B01CC
:100BD000AC01C501B4010E941A0620E030E040E2F9
:100BE00051E40E9472070E948C0690E080E04AE087
:100BF0000E9480023DCFEDE5F2E01382128284E094
:100C000092E0918380838DE084838FEF85838CE0F5
:100C100086838BE087838AE0808789E0818788E00C
:100C200082871386148615861686178661E080E112
:100C30000C9460035058BB27AA270E9432060C94DC
:100C400033070E94250738F00E942C0720F039F462
:100C50009F3F19F426F40C9422070EF4E095E7FB6D
:100C60000C941C07E92F0E94440758F3BA17620737
:100C700073078407950720F079F4A6F50C946607AE
:100C80000EF4E0950B2EBA2FA02D0B01B9019001A7
:100C90000C01CA01A0011124FF27591B99F0593FEB
:100CA00050F4503E68F11A16F040A22F232F342F33
:100CB0004427585FF3CF469537952795A795F04081
:100CC0005395C9F77EF41F16BA0B620B730B840B96
:100CD000BAF09150A1F0FF0FBB1F661F771F881F4E
:100CE000C2F70EC0BA0F621F731F841F48F48795A6
:100CF00077956795B795F7959E3F08F0B0CF939598
:100D0000880F08F09927EE0F9795879508950E9410
:100D1000F80608F481E008950E944C0788F09F5778
:100D200098F0B92F9927B751B0F0E1F0660F771F0F
:100D3000881F991F1AF0BA95C9F714C0B13091F005
:100D40000E946607B1E008950C946607672F782F1C
:100D50008827B85F39F0B93FCCF3869577956795CA
:100D6000B395D9F73EF490958095709561957F4F36
:100D70008F4F9F4F0895E89409C097FB3EF49095DC
:100D80008095709561957F4F8F4F9F4F9923A9F064
:100D9000F92F96E9BB279395F695879577956795F3
:100DA000B795F111F8CFFAF4BB0F11F460FF1BC037
:100DB0006F5F7F4F8F4F9F4F16C0882311F096E9CA
:100DC00011C0772321F09EE8872F762F05C0662378
:100DD00071F096E8862F70E060E02AF09A95660F31
:100DE000771F881FDAF7880F9695879597F90895EA
:100DF000990F0008550FAA0BE0E8FEEF161617062C
:100E0000E807F907C0F012161306E407F50798F093
:100E1000621B730B840B950B39F40A2661F0232BAC
:100E2000242B252B21F408950A2609F4A140A69528
:100E30008FEF811D811D089597F99F6780E870E00D
:100E400060E008959FEF80EC089500240A94161640
:100E5000170618060906089500240A9412161306A8
:100E6000140605060895092E0394000C11F4882336
:100E700052F0BB0F40F4BF2B11F460FF04C06F5F52
:100E80007F4F8F4F9F4F089557FD9058440F551F28
:100E900059F05F3F71F04795880F97FB991F61F0FC
:100EA0009F3F79F087950895121613061406551F73
:100EB000F2CF4695F1DF08C0161617061806991FDF
:100EC000F1CF86957105610508940895E894BB27D4
:100ED00066277727CB0197F908950E94F80608F452
:100EE0008FEF08950E9485070C9433070E94250711
:100EF00038F00E942C0720F0952311F00C941C0769
:100F00000C94220711240C9467070E94440770F385
:100F1000959FC1F3950F50E0551F629FF001729F9E
:100F2000BB27F00DB11D639FAA27F00DB11DAA1FAD
:100F3000649F6627B00DA11D661F829F2227B00DFA
:100F4000A11D621F739FB00DA11D621F839FA00D85
:100F5000611D221F749F3327A00D611D231F849FD5
:100F6000600D211D822F762F6A2F11249F5750402C
:100F70009AF0F1F088234AF0EE0FFF1FBB1F661FA7
:100F8000771F881F91505040A9F79E3F510580F070
:100F90000C941C070C9467075F3FE4F3983ED4F36E
:100FA000869577956795B795F795E7959F5FC1F714
:100FB000FE2B880F911D9695879597F908950E94AD
:100FC000F806880B990B0895A1E21A2EAA1BBB1BE9
:100FD000FD010DC0AA1FBB1FEE1FFF1FA217B30705
:100FE000E407F50720F0A21BB30BE40BF50B661F1B
:100FF000771F881F991F1A9469F7609570958095DF
:1010000090959B01AC01BD01CF010895EE0FFF1F2C
:10101000881F8BBF0790F691E02D1994F894FFCFAD
:10102000000000001004740170026F027777772EC1
:10103000546865456E67696E656572696E670050D4
:10104000726F6A656374732E636F6D00416E616CBD
:101050006F672056616C75653A2000566F6C74613D
:1010600067653A20006E616E00696E66006F766695
:041070000020560006
:00000001FF
