:100000000C94D7000C94FF000C94FF000C94FF009C
:100010000C94FF000C94FF000C94FF000C94FF0064
:100020000C94FF000C94FF000C94FF000C94FF0054
:100030000C94FF000C94FF000C94FF000C94FF0044
:100040000C9456060C94FF000C9424060C94FE05A8
:100050000C94FF000C94FF000C94FF000C94FF0024
:100060000C94FF000C94FF00000000002400270007
:100070002A0000000000250028002B0000000008D6
:10008000000201000003040700000000000000005F
:100090003D3D3D3D3D3D3D3D3D3D3D3D3D3D3D3D90
:1000A0003D3D3D3D3D3D3D3D3D3D3D3D3D3D3D3D80
:1000B0003D3D3D3D3D3D3D3D3D3D002A2A204541E4
:1000C0005354204F5220574553542C20534D4152E6
:1000D0005420484F4D45204953205448452042451F
:1000E0005354202A2A003D3D3D3D3D3D3D3D3D3D93
:1000F0003D3D3D3D3D3D3D3D3D3D3D3D3D3D3D3D30
:100100003D3D3D3D3D3D3D3D3D3D3D3D3D3D3D3D1F
:10011000005341464520005741524E494E47212049
:1001200000C2B0432000C2B0462020486561742060
:10013000696E6465783A2000C2B043200025202013
:1001400054656D70657261747572653A200048750A
:100150006D69646974793A20004661696C65642050
:10016000746F20726561642066726F6D204448541C
:100170002073656E736F722100000000002300265B
:10018000002900040404040404040402020202021C
:10019000020303030303030102040810204080014B
:1001A000020408102001020408102000A0061124F7
:1001B0001FBECFEFD8E0DEBFCDBF11E0A0E0B1E0C1
:1001C000E0E9FCE102C005900D92AC3AB107D9F725
:1001D00022E0ACEAB1E001C01D92A536B207E1F71A
:1001E00010E0C7EDD0E004C02197FE010E94400E50
:1001F000C63DD107C9F70E94ED060C94460E0C943B
:100200000000CF92DF92EF92FF92CF93DF93B091F5
:100210005902A0E08111AB2F80915A0290E0880F23
:10022000991FAC0147585E4FC0905F02D0906002AA
:10023000E0906102F090620230E020E0FA01C591A6
:10024000D491E881B90190E080E0EB23EA130AC081
:100250002F5F3F4F6C157D058E059F0578F36FEF7F
:100260007FEFCB01DF91CF91FF90EF90DF90CF90A8
:100270000895AF92BF92CF92DF92EF92FF920F93C9
:100280001F93CF93DF936C017B018B01040F151F2C
:10029000EB015E01AE18BF08C017D10759F0699194
:1002A000D601ED91FC910190F081E02DC6010995F8
:1002B000892B79F7C501DF91CF911F910F91FF90A5
:1002C000EF90DF90CF90BF90AF900895FC01538DD9
:1002D000448D252F30E0842F90E0821B930B541720
:1002E00010F0CF96089501970895FC01918D828DAD
:1002F000981761F0A28DAE0FBF2FB11D5D968C9146
:10030000928D9F5F9F73928F90E008958FEF9FEF84
:100310000895FC01918D828D981731F0828DE80F40
:10032000F11D858D90E008958FEF9FEF0895FC01FA
:10033000918D228D892F90E0805C9F4F821B9109C7
:100340008F739927089585EB91E00E94970121E032
:10035000892B09F420E0822F089580E090E0892B1A
:1003600029F00E94A30181110C9400000895FC0162
:10037000A48DA80FB92FB11DA35ABF4F2C91848D06
:1003800090E001968F739927848FA689B7892C9363
:10039000A089B1898C91837080648C93938D848DB6
:1003A000981306C00288F389E02D80818F7D8083B9
:1003B0000895EF92FF920F931F93CF93DF93EC0179
:1003C00081E0888F9B8D8C8D98131AC0E889F989FC
:1003D000808185FF15C09FB7F894EE89FF896083FF
:1003E000E889F98980818370806480839FBF81E080
:1003F00090E0DF91CF911F910F91FF90EF900895C2
:10040000F62E0B8D10E00F5F1F4F0F731127E02E9C
:100410008C8D8E110CC00FB607FCFACFE889F989D4
:10042000808185FFF5CFCE010E94B701F1CFEB8D22
:10043000EC0FFD2FF11DE35AFF4FF0829FB7F894A8
:100440000B8FEA89FB8980818062CFCF0F931F9346
:10045000CF93DF938C01D0E0C0E0F801EC0FFD1FDB
:100460006491662341F085EB91E00E94D901892BCC
:1004700011F02196F2CFCE01DF91CF911F910F9114
:100480000895CF93DF93EC01888D8823B9F0AA8972
:10049000BB89E889F9898C9185FD03C0808186FD3F
:1004A0000DC00FB607FCF7CF8C9185FFF2CF80818E
:1004B00085FFEDCFCE010E94B701E9CFDF91CF914B
:1004C0000895833081F028F4813099F08230A9F0CA
:1004D00008958730A9F08830C9F08430B1F4809154
:1004E00080008F7D03C0809180008F778093800093
:1004F000089584B58F7784BD089584B58F7DFBCF33
:100500008091B0008F778093B00008958091B00003
:100510008F7DF9CFCF93DF93282F30E0F901E45896
:10052000FF4F8491F901E956FE4FD491F901ED573F
:10053000FE4FC491CC23A1F081110E946102EC2FE7
:10054000F0E0EE0FFF1FE758FE4FA591B491EC913C
:10055000ED2381E090E009F480E0DF91CF910895F0
:1005600080E090E0FACF1F93CF93DF93282F30E005
:10057000F901E458FF4F8491F901E956FE4FD491F7
:10058000F901ED57FE4FC491CC23A9F0162F81112C
:100590000E946102EC2FF0E0EE0FFF1FEE58FF4FBC
:1005A000A591B4918FB7F894EC91111108C0D09532
:1005B000DE23DC938FBFDF91CF911F910895DE2B57
:1005C000F8CFCF93DF9390E0FC01E956FE4F2491E2
:1005D0008D579E4FFC0184918823C9F090E0880FCD
:1005E000991FFC01E859FF4FA591B491FC01EE5809
:1005F000FF4FC591D49161110DC09FB7F8948C91B4
:10060000209582238C938881282328839FBFDF91A4
:10061000CF910895623051F49FB7F8943C91822FA6
:10062000809583238C93E8812E2BEFCF8FB7F8949E
:10063000EC912E2B2C938FBFEACF3FB7F89480918B
:10064000AD019091AE01A091AF01B091B00126B57E
:10065000A89B05C02F3F19F00196A11DB11D3FBFFA
:10066000BA2FA92F982F8827BC01CD01620F711DC9
:10067000811D911D42E0660F771F881F991F4A95C3
:10068000D1F708958F929F92AF92BF92CF92DF924F
:10069000EF92FF924B015C010E941D036B017C01F4
:1006A0000E941D036C197D098E099F09683E7340E5
:1006B00081059105A8F321E0821A9108A108B108EB
:1006C00088EEC80E83E0D81EE11CF11C8114910451
:1006D000A104B10429F7FF90EF90DF90CF90BF9075
:1006E000AF909F908F900895CF92DF92EF92FF92FC
:1006F0000F931F93CF93DF93CDB7DEB7C054D14094
:100700000FB6F894DEBF0FBECDBF2FB7F89480911F
:10071000B1019091B201A091B301B091B4012FBF8A
:1007200040915B0250915C0260915D0270915E02AB
:100730008C019D01041B150B260B370BB901A80179
:10074000403D57406105710590F480916302C05CA3
:10075000DE4F0FB6F894DEBF0FBECDBFDF91CF9155
:100760001F910F91FF90EF90DF90CF9008958093AD
:100770005B0290935C02A0935D02B0935E021092C4
:100780005602109255021092540210925302109287
:10079000520262E0809157020E94E10261E070E043
:1007A00080E090E00E94420361E0809157020E9445
:1007B000E10260E0809157020E94B30280915802EA
:1007C0008551823020F58BE291E10197F1F762E0EB
:1007D000809157020E94E1028091640290E0823091
:1007E000910538F0880F991F880F991F0597019779
:1007F000F1F7F89480E00E9401016F3F7F4F8F4F27
:100800009F4F61F410926302789480E0A0CF64E17E
:1008100070E080E090E00E944203D9CF81E00E9426
:1008200001016F3F7F4F8F4F9F4F61F38E010F5F2D
:100830001F4F6E018FEBC81A8EEFD80A780180E047
:100840000E940101F701608371838283938381E0B9
:100850000E940101F7016483758386839783F8E022
:10086000EF0EF11CEC14FD0451F7789430E020E019
:10087000F801C080D180E280F38044815581668197
:100880007781FFEFCF16DF06EF06FF0631F04F3F0F
:100890008FEF58076807780719F410926302B5CFF5
:1008A000F90183E0F595E7958A95E1F7EE5AFD4F5A
:1008B0008081880FC416D506E606F70610F18083FE
:1008C0002F5F3F4F085F1F4F2832310589F6409157
:1008D00056022091520280915302280F3327331F72
:1008E00080915402280F311D80915502820F932F61
:1008F000911D99274817190681F681E080936302BC
:1009000026CF8160DCCFFC0101900020E9F7319710
:10091000AF01481B590BBC0185EB91E00C943901E8
:100920008F929F92AF92BF920F931F93CF93DF93BB
:10093000CDB7DEB7A1970FB6F894DEBF0FBECDBF1F
:1009400019A2423008F44AE08E010F5D1F4F842E39
:10095000912CB12CA12CA50194010E941E0EE62F12
:10096000B901CA01EA30F4F4E05DD801EE938D01DB
:10097000232B242B252B79F790E080E0109719F09A
:10098000CD010E948304A1960FB6F894DEBF0FBE7E
:10099000CDBFDF91CF911F910F91BF90AF909F90EE
:1009A0008F900895E95CE1CFCF93DF930E94830499
:1009B000EC0182E191E00E9483048C0F9D1FDF9186
:1009C000CF910895CF93DF930E942602EC0182E13C
:1009D00091E00E9483048C0F9D1FDF91CF910895B9
:1009E000CF92DF92EF92FF92CF93DF936C01990F3A
:1009F000EE08FF08F7FE1FC06DE285EB91E00E9454
:100A0000D901EC0166277727CB016C197D098E0986
:100A10009F094AE00E949004C80FD91F82E191E02B
:100A20000E9483048C0F9D1FDF91CF91FF90EF9068
:100A3000DF90CF9008954AE0C701B6010E9490046C
:100A4000EC01ECCF4F925F926F927F928F929F92C8
:100A5000AF92BF92CF92DF92EF92FF920F931F93CC
:100A6000CF936B017C01742EAC019B010E94040E9C
:100A7000882399F085E191E0CF911F910F91FF902C
:100A8000EF90DF90CF90BF90AF909F908F907F902E
:100A90006F905F904F900C94830446015701E89447
:100AA000B7F82FEF3FEF4FE75FE7C501B4010E94B2
:100AB000040E81110DC02FEF3FEF4FE75FE7C50137
:100AC000B4010E94F40B18161CF489E191E0D4CF14
:100AD0002FEF3FEF4FE75FE4C701B6010E944C0DD7
:100AE00018161CF48DE191E0C7CF2FEF3FEF4FE7D1
:100AF0005FECC701B6010E94F40B87FDF3CF20E045
:100B000030E0A901C701B6010E94F40B10E000E03B
:100B100087FF0AC06DE285EB91E00E94D9018C014C
:100B2000F7FAF094F7F8F094C0E060E070E080E04D
:100B30009FE37C1641F020E030E040E251E40E9467
:100B4000F90BCF5FF6CFA70196010E94880B2B010E
:100B50003C010E946B0C4B015C014AE00E94900436
:100B60007C01E00EF11ECC23C1F1C501B4010E944D
:100B70009A0C9B01AC01C301B2010E94870B4B018F
:100B80005C016EE285EB91E00E94D901E80EF91E4E
:100B9000C15018F120E030E040E251E4C501B40159
:100BA0000E94510D2B013C010E946B0C4B01B12C9A
:100BB000A12C4AE0C501B4010E949004E80EF91E80
:100BC000C501B4010E949A0C9B01AC01C301B201A2
:100BD0000E94870B4B015C01DBCFC701CF911F91B6
:100BE0000F91FF90EF90DF90CF90BF90AF909F90CC
:100BF0008F907F906F905F904F9008951F920F920B
:100C00000FB60F9211242F933F934F935F936F93DF
:100C10007F938F939F93AF93BF93EF93FF9385EB56
:100C200091E00E94B701FF91EF91BF91AF919F9129
:100C30008F917F916F915F914F913F912F910F9085
:100C40000FBE0F901F9018951F920F920FB60F9224
:100C500011242F938F939F93EF93FF93E091C501FE
:100C6000F091C6018081E091CB01F091CC0182FD31
:100C70001BC090818091CE018F5F8F732091CF0137
:100C8000821741F0E091CE01F0E0EB54FE4F958FDA
:100C90008093CE01FF91EF919F918F912F910F90B3
:100CA0000FBE0F901F9018958081F4CF1F920F9266
:100CB0000FB60F9211242F933F938F939F93AF936F
:100CC000BF938091B1019091B201A091B301B09115
:100CD000B4013091AC0123E0230F2D3758F5019674
:100CE000A11DB11D2093AC018093B1019093B2017D
:100CF000A093B301B093B4018091AD019091AE0186
:100D0000A091AF01B091B0010196A11DB11D8093DA
:100D1000AD019093AE01A093AF01B093B001BF912C
:100D2000AF919F918F913F912F910F900FBE0F9098
:100D30001F90189526E8230F0296A11DB11DD2CF52
:100D4000E5EBF1E01382128288EE93E0A0E0B0E0E0
:100D500084839583A683B78384E091E09183808325
:100D600085EC90E09587848784EC90E09787868770
:100D700080EC90E0918B808B81EC90E0938B828B68
:100D800082EC90E0958B848B86EC90E0978B868B41
:100D9000118E128E138E148EA2E5B2E082E01596AB
:100DA0008C9315978BE016968C931697E9E9F1E0F2
:100DB000E4911796EC931797E5E8F1E0E491189623
:100DC000EC93189740E85EE360E070E01D964D9369
:100DD0005D936D937C9350970895CF93DF93CDB738
:100DE000DEB72C970FB6F894DEBF0FBECDBF789458
:100DF00084B5826084BD84B5816084BD85B5826020
:100E000085BD85B5816085BD80916E0081608093D0
:100E10006E00109281008091810082608093810039
:100E20008091810081608093810080918000816049
:100E3000809380008091B10084608093B1008091A4
:100E4000B00081608093B00080917A0084608093CC
:100E50007A0080917A00826080937A0080917A0093
:100E6000816080937A0080917A00806880937A0014
:100E70001092C10060E08EE10E94E10260E08FE12B
:100E80000E94E10261E082E20E94E10261E080E210
:100E90000E94E10261E081E20E94E10261E083E2FE
:100EA0000E94E102E091C501F091C60182E08083D9
:100EB000E091C101F091C2011082E091C301F09173
:100EC000C4018FEC80831092CD01E091C901F091B3
:100ED000CA0186E08083E091C701F091C80180815A
:100EE00080618083E091C701F091C80180818860B2
:100EF0008083E091C701F091C80180818068808380
:100F0000E091C701F091C80180818F7D808384E1E9
:100F100091E00E94D40486EE90E00E94E2048BEB04
:100F200090E00E94E20480E990E00E94E20484E103
:100F300091E00E94D40462E0809157020E94E10295
:100F40002FB7F8948091B1019091B201A091B301B3
:100F5000B091B4012FBF805D9740A109B109809382
:100F60005B0290935C02A0935D02B0935E0287E304
:100F70008093640261E084E20E94E10261E085E224
:100F80000E94E10261E086E20E94E10210E468EE64
:100F900073E080E090E00E9442030E947403882383
:100FA00049F0809158028B3028F08D3050F08551F7
:100FB0008230C0F1812C912C20ECA22E2FE7B22E92
:100FC0001EC06091530270E090E080E00E949C0C93
:100FD0002DEC3CEC4CEC5DE30E94510D6B017C016F
:100FE0006091520270E090E080E00E949C0C9B01B6
:100FF000AC01C701B6010E94880B4B015C010E9445
:101000007403882341F0809158028C3009F4A0C009
:10101000D8F48B30B1F1412C512C80EC682E8FE745
:10102000782E59C06091520270915302762767273B
:10103000762790E080E00E949A0C2DEC3CEC4CEC82
:101040005DE30E94510DD9CF8551823020F7F09099
:1010500054026F2D70E0762F662766277F77809188
:101060005502682B90E080E00E949A0C2DEC3CEC3D
:101070004CEC5DE30E94510D2B013C01F7FE2BC0AF
:1010800087C06091540270E090E080E00E949A0C6A
:101090006B017C010091550207FF0AC0AC019B0166
:1010A00060E070E080E89FEB0E94870B6B017C01A1
:1010B0000F70602F70E090E080E00E949C0C2DEC9F
:1010C0003CEC4CEC5DE30E94510DA70196010E949F
:1010D000880B2B013C0120E030E048E452E4C501DC
:1010E000B4010E944C0D87FD58C020E030E040EA7A
:1010F00051E4C301B2010E944C0D87FD4EC081E254
:1011000091E00E94D40461E083E20E94B302A50151
:101110009401C501B4010E94040E811108C0A3010D
:101120009201C301B2010E94040E8823C1F189E536
:1011300091E00E94E20480E090E0892B09F427CF3F
:101140000E94A301882309F422CF0E9400001FCF30
:1011500000915402602F70E090E080E00E949A0CB1
:101160006B017C01609155026F7070E090E080E04F
:101170000E949C0C2DEC3CEC4CEC5DE30E94510D6C
:10118000A70196010E94880B2B013C0107FFA3CF0A
:1011900077FA709477F870949ECF60E0B5CF26E62A
:1011A00036E646EE5FE3C301B2010E94510D20E036
:1011B00030E040E052E40E94880B69837A838B839D
:1011C0009C8320E030E048E852E40E94870B2AE943
:1011D00039E949E95FE30E94510D6B017C0120E090
:1011E00030E044E752E469817A818B819C810E94DE
:1011F000880B9B01AC01C701B6010E94880B6B01F3
:101200007C0122E133E840EC5DE3C501B4010E94BA
:10121000510D9B01AC01C701B6010E94880B20E073
:1012200030E040E05FE30E94510D6B017C0120E063
:1012300030E04EE952E40E944C0D18160CF025C126
:1012400029813A814B815C81CA01B9010E94510D0B
:101250006D837E838F839887A5019401C501B401B6
:101260000E94510D69877A878B879C8721E133E241
:1012700043E050E469817A818B819C810E94510D09
:1012800029E134E849E252E40E94870B6B017C01BA
:1012900026E13BE442E251E4C501B4010E94510D54
:1012A0009B01AC01C701B6010E94880B6B017C0158
:1012B00028E436E246E65EEB69817A818B819C8187
:1012C0000E94510DA50194010E94510D9B01AC019A
:1012D000C701B6010E94880B6B017C0120EE3FE044
:1012E00040EE5BEB6D817E818F8198850E94510D70
:1012F0009B01AC01C701B6010E94880B6B017C0108
:1013000028EF37E840E65DEB69857A858B859C851B
:101310000E94510D9B01AC01C701B6010E94880BD0
:101320006B017C012CEA3DE041EA5AE36D817E814C
:101330008F8198850E94510DA50194010E94510D45
:101340009B01AC01C701B6010E94880B6B017C01B7
:1013500028EC3FE84FE55AE369817A818B819C81D3
:101360000E94510D29853A854B855C850E94510D5F
:101370009B01AC01C701B6010E94880B6B017C0187
:1013800021EF3BE845E056EB6D817E818F819885AA
:101390000E94510D29853A854B855C850E94510D2F
:1013A0009B01AC01C701B6010E94880B6B017C0157
:1013B00020E030E040E551E4C501B4010E94F40BA7
:1013C00087FF20C120E030E040EA52E469817A8161
:1013D0008B819C810E944C0D87FD14C120E030E080
:1013E00040EE52E469817A818B819C810E94F40BEA
:1013F00018160CF480C1A501940160E070E080E54E
:1014000091E40E94870B20E030E040E85EE30E9418
:10141000510D6D837E838F83988720E030E04EEB03
:1014200052E469817A818B819C810E94870B698358
:101430007A838B839C8320E030E0A9010E944C0DCD
:1014400018160CF0D4C029813A814B815C8160E090
:1014500070E088E891E40E94870B2EE33DEE40E7C0
:101460005DE30E94510D0E94C40D9B01AC016D8192
:101470007E818F8198850E94510D9B01AC01C7012F
:10148000B6010E94870B6B017C0184E191E00E9410
:10149000D4048EE491E00E94260242E0C501B4012A
:1014A0000E9422058DE391E00E94260242E0C301E2
:1014B000B2010E94220588E391E00E94260286E2A2
:1014C00091E00E94260220E030E040E052E4C701B3
:1014D000B6010E94870B26E838E34EE05FE30E94E6
:1014E000510D42E00E94220581E291E00E94E20457
:1014F00084E191E00E94D4048EE10E948A027C0182
:101500008FE10E948A026C0184E191E00E94D40480
:1015100085E391E00E94D404C7010E94F0048EE3A9
:1015200091E00E94D404C6010E94F004CA94CD2820
:1015300021F0EA94EF2809F0BAC084E191E00E941A
:10154000D40487E191E00E94E20461E081E20E941C
:10155000B30260E080E20E94B30261E082E20E9496
:10156000B30264E670E080E090E00E9442031093D2
:101570007C0080917A00806480937A0080917A0068
:1015800086FDFCCF80917800E0907900FE2CE82E5B
:1015900087E491E00E948304C7010E94F00484E67E
:1015A000E816F1040CF496C060E085E20E94B302F4
:1015B0008BE591E00E94D40464EF71E080E090E05C
:1015C0000E94420384E20E948A02892B09F08DC0A6
:1015D00081E891E00E94D40460E086E20E94B302B8
:1015E00064EF71E080E090E00E944203A4CD20E02F
:1015F00030E048E851E469817A818B819C810E94C6
:10160000880B2BCF20E030E04AEA52E4C501B40158
:101610000E944C0D18160CF038CF20E030E040EA64
:1016200052E469817A818B819C810E944C0D87FDF7
:101630002CCF20E030E04EEA52E469817A818B8140
:101640009C810E94F40B18160CF41FCF20E030E0B0
:101650004AEA52E4C501B4010E94870B2DEC3CEC30
:101660004CEC5DE30E94510D6D837E838F839887E0
:1016700029813A814B815C8160E070E08EEA92E4DE
:101680000E94870B2DEC3CEC4CE45EE30E94510D74
:101690009B01AC016D817E818F8198850E94510DE7
:1016A0009B01AC01C701B6010E94880BECCE84E11E
:1016B00091E00E94D40481E191E00E94E20460E0A4
:1016C00082E20E94B30260E081E20E94B30261E024
:1016D00080E245CF84E191E00E94D40461E085E29C
:1016E0000E94B30287E691E065CF8FE891E00E9407
:1016F000D40461E072CF20E030E04AEA52E4C50150
:10170000B4010E944C0D18160CF493CFBECE505865
:10171000BB27AA270E949F0B0C94120D0E94040D58
:1017200038F00E940B0D20F039F49F3F19F426F495
:101730000C94010D0EF4E095E7FB0C94FB0CE92FE3
:101740000E94230D58F3BA176207730784079507A1
:1017500020F079F4A6F50C94450D0EF4E0950B2ECF
:10176000BA2FA02D0B01B90190010C01CA01A001F3
:101770001124FF27591B99F0593F50F4503E68F14E
:101780001A16F040A22F232F342F4427585FF3CF8F
:10179000469537952795A795F0405395C9F77EF460
:1017A0001F16BA0B620B730B840BBAF09150A1F0A9
:1017B000FF0FBB1F661F771F881FC2F70EC0BA0F2F
:1017C000621F731F841F48F4879577956795B795B7
:1017D000F7959E3F08F0B0CF9395880F08F09927B2
:1017E000EE0F9795879508950E94D70C08F481E035
:1017F00008950E940D0C0C94120D0E940B0D58F0D0
:101800000E94040D40F029F45F3F29F00C94FB0C7A
:1018100051110C94460D0C94010D0E94230D68F398
:101820009923B1F3552391F3951B550BBB27AA2799
:1018300062177307840738F09F5F5F4F220F331FD3
:10184000441FAA1FA9F335D00E2E3AF0E0E832D09B
:1018500091505040E695001CCAF72BD0FE2F29D09E
:10186000660F771F881FBB1F261737074807AB0770
:10187000B0E809F0BB0B802DBF01FF2793585F4FE5
:101880003AF09E3F510578F00C94FB0C0C94460DF9
:101890005F3FE4F3983ED4F3869577956795B795C7
:1018A000F7959F5FC9F7880F911D9695879597F9D2
:1018B0000895E1E0660F771F881FBB1F621773074B
:1018C0008407BA0720F0621B730B840BBA0BEE1F60
:1018D00088F7E09508950E942B0D88F09F5798F0A7
:1018E000B92F9927B751B0F0E1F0660F771F881F25
:1018F000991F1AF0BA95C9F714C0B13091F00E943F
:10190000450DB1E008950C94450D672F782F882779
:10191000B85F39F0B93FCCF3869577956795B39565
:10192000D9F73EF490958095709561957F4F8F4FD4
:101930009F4F0895E89409C097FB3EF490958095D9
:10194000709561957F4F8F4F9F4F9923A9F0F92F85
:1019500096E9BB279395F695879577956795B79503
:10196000F111F8CFFAF4BB0F11F460FF1BC06F5FE9
:101970007F4F8F4F9F4F16C0882311F096E911C0FB
:10198000772321F09EE8872F762F05C0662371F01C
:1019900096E8862F70E060E02AF09A95660F771F30
:1019A000881FDAF7880F9695879597F90895990F0C
:1019B0000008550FAA0BE0E8FEEF16161706E80719
:1019C000F907C0F012161306E407F50798F0621B3A
:1019D000730B840B950B39F40A2661F0232B242B0F
:1019E000252B21F408950A2609F4A140A6958FEF2E
:1019F000811D811D089597F99F6780E870E060E080
:101A000008959FEF80EC089500240A941616170697
:101A100018060906089500240A94121613061406DF
:101A200005060895092E0394000C11F4882352F042
:101A3000BB0F40F4BF2B11F460FF04C06F5F7F4FFA
:101A40008F4F9F4F089557FD9058440F551F59F0E1
:101A50005F3F71F04795880F97FB991F61F09F3F9B
:101A600079F087950895121613061406551FF2CFC4
:101A70004695F1DF08C0161617061806991FF1CF14
:101A800086957105610508940895E894BB2766273B
:101A90007727CB0197F908950E94D70C08F48FEFB0
:101AA00008950E94640D0C94120D0E94040D38F0EC
:101AB0000E940B0D20F0952311F00C94FB0C0C945C
:101AC000010D11240C94460D0E94230D70F3959F77
:101AD000C1F3950F50E0551F629FF001729FBB2725
:101AE000F00DB11D639FAA27F00DB11DAA1F649FC1
:101AF0006627B00DA11D661F829F2227B00DA11D74
:101B0000621F739FB00DA11D621F839FA00D611DF9
:101B1000221F749F3327A00D611D231F849F600D1A
:101B2000211D822F762F6A2F11249F5750409AF043
:101B3000F1F088234AF0EE0FFF1FBB1F661F771FCF
:101B4000881F91505040A9F79E3F510580F00C949A
:101B5000FB0C0C94460D5F3FE4F3983ED4F386955E
:101B600077956795B795F795E7959F5FC1F7FE2B3A
:101B7000880F911D9695879597F9089519F416F495
:101B80000C94010D0C94090E0E942B0DB8F39923AF
:101B9000C9F3B6F39F57550B87FF0E94170E002419
:101BA000A0E640EA900180585695979528F4805C0D
:101BB000660F771F881F20F026173707480730F475
:101BC000621B730B840B202931294A2BA69517948D
:101BD0000794202531254A2758F7660F771F881F5D
:101BE00020F026173707480730F4620B730B840B7D
:101BF000200D311D411DA09581F7B901842F915809
:101C0000880F9695879508950E94D70C880B990B9D
:101C100008959F3F31F0915020F48795779567950F
:101C2000B795880F911D9695879597F908959150CE
:101C30005040660F771F881FD2F70895A1E21A2E31
:101C4000AA1BBB1BFD010DC0AA1FBB1FEE1FFF1F60
:101C5000A217B307E407F50720F0A21BB30BE40BB0
:101C6000F50B661F771F881F991F1A9469F76095F7
:101C70007095809590959B01AC01BD01CF010895B1
:101C8000EE0FFF1F0590F491E02D0994F894FFCF1B
:101C900000000000D9013901660141029701750178
:101CA00089010D0A006E616E00696E66006F7666CE
:101CB000005455524E494E4720524F4F4D204641F9
:101CC0004E204F4E00666C616D65203D2000736DA7
:101CD0006F6B65203D20004C4947485420494E54C5
:101CE00045534954592049533A2000444159204C06
:101CF00049474854212100495453204441524B2C18
:101D0000204E49474854204C49474854204F4E21C3
:101D100000524F4F4D20495320454D505459004FCC
:101D2000424A4543542044455445435445442C209D
:0C1D30004C4947485453204F4E210000FE
:00000001FF
